:1000000040C064C063C062C061C060C05FC05EC009
:100010005DC0B0C25BC05AC059C058C057C056C0BE
:1000200055C054C053C00000000000000000000391
:100030000406000000000000000001020408102077
:10004000408001020408102001020408102004046A
:100050000404040404040202020202020303030370
:1000600003030000000036003300300000000000F1
:100070003800350032000000000037003400310045
:10008000420211241FBECFE5D4E0DEBFCDBF10E099
:10009000A0E6B0E0EEE1FFE002C005900D92A636CA
:1000A000B107D9F720E0A6E6B0E001C01D92A23862
:1000B000B207E1F710E0C2E8D0E003C02297FE01EA
:1000C0001CD7C038D107D1F79ED427C799CFCF937B
:1000D000DF93C4E6D0E08EE021D3BC01882777FD12
:1000E0008095982F9BD52091740030917500409198
:1000F00076005091770093D46093740070937500EC
:100100008093760090937700219729F720E030E0E4
:1001100048EC52E4E8D460937400709375008093C7
:1001200076009093770020E030E048E751E402D673
:1001300020E030EC4FE754E4D6D420E030E0A901D1
:100140006ED4DF91CF910895CF93DF93C4E6D0E0D2
:100150008FE0E4D2BC01882777FD8095982F5ED58B
:1001600020917000309171004091720050917300A5
:1001700056D46093700070937100809372009093D6
:100180007300219729F720E030E048EC52E4ABD42B
:10019000609370007093710080937200909373006D
:1001A00024E333E34BE251ECC5D520E030E04EE7E9
:1001B00053E499D42AE939E94DE951E430D4DF9187
:1001C000CF910895AF92BF92CF92DF92EF92FF92BC
:1001D0000F931F93CF93DF93C4E6D0E08FE09ED2BE
:1001E00020916E0030916F00280F391F30936F00FF
:1001F00020936E00219791F7C90164E670E00CD658
:1002000070936F0060936E00882777FD8095982F1C
:100210001F921F921F922AE92F9328E0A22EB12C41
:10022000C12CD12C1EEFE12EF12C00E010E020E0DB
:1002300030E0A901A2D30F900F900F900F90CB0147
:10024000DF91CF911F910F91FF90EF90DF90CF90B2
:10025000BF90AF900895CF93DF9360E070E089E0A6
:1002600071D265E070E080E090E0FED1C8E0D0E0BF
:10027000BE0189E067D265E070E080E090E0F4D1F3
:100280002196C939D105A1F7C9E9D0E0BE0189E0BD
:1002900059D265E070E080E090E0E6D12197C83067
:1002A000D105A1F7DF91CF9108951F93CF93DF93ED
:1002B00020E030E040E251E43DD57DD4CB0164360E
:1002C000710514F4D9E001C0D1E064E670E0A4D572
:1002D000162FEAE0F0E0BF019FD5C62FC295C07F80
:1002E000BF019AD5C82B60E088E0AED22D2F41E047
:1002F00067E086E006D361E088E0A6D26AE070E0BD
:1003000080E090E0B1D160E088E09ED220EA41E058
:1003100067E086E0F6D2212F41E067E086E0F1D287
:100320002C2F41E067E086E0ECD261E088E08CD2DF
:100330006AE070E080E090E0DF91CF911F9194C17E
:1003400060E088E081D221E041E067E086E0D9D238
:1003500061E088E079D26AE070E080E090E084C1FA
:1003600060E088E071D220E041E067E086E0C9D239
:1003700061E088E069D26AE070E080E090E074C1FA
:10038000FF920F931F93CF93DF93C0E0D0E0FC2E3A
:100390001C2F1295107F1C2B209711F400EF01C029
:1003A00000E860E088E050D2202F41E067E086E07E
:1003B000A8D22F2D41E067E086E0A3D2212F41E0B3
:1003C00067E086E09ED261E088E03ED26AEF70E0AE
:1003D00080E090E049D12196CA30D105C1F664E6AB
:1003E00070E080E090E0DF91CF911F910F91FF903E
:1003F0003BC181E090D161E086E0EDD161E088E031
:10040000EAD161E087E0E7D162E082E0E4D162E036
:1004100070E086E690E045D062E370E086E690E02A
:1004200053D068EE73E080E090E01ED189DFA8DF52
:100430006CE271E080E090E017D10DCFC3DEBC012B
:1004400089E080D186E690E043D086E690E088D0CF
:10045000882329F0809178008F5F809378008091C5
:100460007800833010F0109278008091780081300D
:1004700031F018F0823029F0089566DE01C027DEE1
:1004800014CF6ECF86E690E000C0FC01108211828E
:10049000128213828AE090E0958384831682178209
:1004A0000895CF93DF93EC01862F6F831E8201D2D4
:1004B000892B11F083E08E83A7D0688379838A83A8
:1004C0009B83DF91CF910895FC0175836483089528
:1004D000FF920F931F93CF93DF93EC018F81E9D1AC
:1004E000FF24F394892B09F4F12C8E81982F977FA8
:1004F0009E8386958170F81649F086D0688379834B
:100500008A839B838E8192E089271FC07DD00881DA
:1005100019812A813B81601B710B820B930B0C812B
:100520001D8120E030E0601771078207930770F0AB
:100530008E8181708F1551F067D0688379838A83AB
:100540009B838E8191E0892788608E838E8183FBD7
:10055000882780F9DF91CF911F910F91FF90089527
:10056000FC01868180FD04C083FB882780F9089503
:1005700080E008951F920F920FB60F9211242F93CF
:100580003F938F939F93AF93BF9380917A00909105
:100590007B00A0917C00B0917D003091790023E038
:1005A000230F2D3720F40196A11DB11D05C026E8AB
:1005B000230F0296A11DB11D2093790080937A002C
:1005C00090937B00A0937C00B0937D0080917E008F
:1005D00090917F00A0918000B09181000196A11DB3
:1005E000B11D80937E0090937F00A0938000B09314
:1005F0008100BF91AF919F918F913F912F910F906B
:100600000FBE0F901F9018952FB7F89460917A0045
:1006100070917B0080917C0090917D002FBF0895A8
:100620003FB7F89480917E0090917F00A091800068
:10063000B091810022B708B600FE05C02F3F19F027
:100640000196A11DB11D3FBF6627782F892F9A2FD4
:10065000620F711D811D911D42E0660F771F881F7B
:10066000991F4A95D1F708958F929F92AF92BF92AA
:10067000CF92DF92EF92FF926B017C01D1DF4B01B1
:100680005C01C114D104E104F104E1F0C6D1C8DF7A
:10069000681979098A099B09683E734081059105AB
:1006A00080F321E0C21AD108E108F10888EE880E33
:1006B00083E0981EA11CB11CC114D104E104F10413
:1006C00031F7DFCFFF90EF90DF90CF90BF90AF90EA
:1006D0009F908F900895789483B7826083BF83B78B
:1006E000816083BF89B7816089BF1EBC8EB582607F
:1006F0008EBD8EB581608EBD8FB581608FBD85B595
:10070000846085BD85B5806485BD329A319A309A02
:10071000379A1AB808958093640008958E3008F0CF
:100720008E5087702091640090E4299F90011124DD
:10073000822B87B9369A3699FECF84B125B190E0E5
:10074000922B08951F93CF93DF93182FEB0161E055
:1007500042D0209711F460E004C0CF3FD10531F4BE
:1007600061E0812FDF91CF911F916EC0E12FF0E00A
:10077000EA5DFF4FE491E43051F0E63071F0E33090
:1007800089F48FB580688FBDDBBDCABD0FC08FB542
:1007900080628FBDD9BDC8BD09C085B5806285BDE9
:1007A000C3BD04C0C038D105DCF6D5CFDF91CF91F1
:1007B0001F910895843039F0863049F0833051F428
:1007C0008FB58F7702C08FB58F7D8FBD089585B5AA
:1007D0008F7D85BD0895CF93DF9390E0FC01E65CAB
:1007E000FF4F2491FC01E25BFF4F8491882349F184
:1007F00090E0880F991FFC01EA58FF4FA591B49132
:1008000084599F4FFC01C591D4919FB7611108C0D5
:10081000F8948C91209582238C93888182230AC03E
:10082000623051F4F8948C91322F309583238C935D
:100830008881822B888304C0F8948C91822B8C93BE
:100840009FBFDF91CF9108950F931F93CF93DF93B5
:100850001F92CDB7DEB7282F30E0F901EA5DFF4FD8
:100860008491F901E65CFF4F1491F901E25BFF4FBF
:1008700004910023C1F0882319F069839BDF69810B
:10088000E02FF0E0EE0FFF1FE459FF4FA591B49168
:100890009FB7F8948C91611103C01095812301C01A
:1008A000812B8C939FBF0F90DF91CF911F910F9160
:1008B0000895CF93DF93282F30E0F901EA5DFF4FD1
:1008C0008491F901E65CFF4FD491F901E25BFF4F9F
:1008D000C491CC2389F081116DDFEC2FF0E0EE0F95
:1008E000FF1FEE59FF4FA591B4912C912D2381E06C
:1008F00090E021F480E002C080E090E0DF91CF91B1
:100900000895BF92CF92DF92EF92FF920F931F93C1
:10091000CF93DF93C82ED62EB42EC7E0D0E0022F9F
:1009200010E087E0E82EF12CB1100AC0F701EC1BB3
:10093000FD0BB80102C075956795EA95E2F707C00F
:10094000B8010C2E02C0759567950A94E2F76170A4
:1009500077278C2D79DF61E08D2D76DF60E08D2D9E
:1009600073DF219708F7DF91CF911F910F91FF90CF
:10097000EF90DF90CF90BF9008954F925F926F926B
:100980007F92AF92BF92CF92DF92EF92FF920F933E
:100990001F93CF93DF93CDB7DEB729013A01621BD6
:1009A000730B840B950B29893A894B895C892A1929
:1009B0003B094C095D09298B3A8B4B8B5C8B9B0166
:1009C000AC0169897A898B899C8917D2E418F5086A
:1009D00006091709A801970132D22A0D3B1D4C1DAB
:1009E0005D1DCA01B901DF91CF911F910F91FF9059
:1009F000EF90DF90CF90BF90AF907F906F905F901F
:100A00004F900895089567DEFDDFF3DCC0E0D0E08D
:100A100015DD2097E9F3F4DAFBCF08955058BB2792
:100A2000AA270ED04DC13ED130F043D120F031F491
:100A30009F3F11F41EF433C10EF4E095E7FB29C18A
:100A4000E92F4FD180F3BA17620773078407950720
:100A500018F071F49EF567C10EF4E0950B2EBA2FD5
:100A6000A02D0B01B90190010C01CA01A0011124B4
:100A7000FF27591B99F0593F50F4503E68F11A1660
:100A8000F040A22F232F342F4427585FF3CF4695F1
:100A900037952795A795F0405395C9F77EF41F1613
:100AA000BA0B620B730B840BBAF09150A1F0FF0FDD
:100AB000BB1F661F771F881FC2F70EC0BA0F621FC9
:100AC000731F841F48F4879577956795B795F795B9
:100AD0009E3F08F0B3CF9395880F08F09927EE0F4B
:100AE0009795879508950CD0EBC0E3D040F0DAD00D
:100AF00030F021F45F3F19F0CCC0511115C1CFC0C7
:100B0000F0D098F39923C9F35523B1F3951B550BF6
:100B1000BB27AA2762177307840738F09F5F5F4FD0
:100B2000220F331F441FAA1FA9F333D00E2E3AF011
:100B3000E0E830D091505040E695001CCAF729D02B
:100B4000FE2F27D0660F771F881FBB1F261737077A
:100B50004807AB07B0E809F0BB0B802DBF01FF27AA
:100B600093585F4F2AF09E3F510568F092C0DCC059
:100B70005F3FECF3983EDCF3869577956795B795E4
:100B8000F7959F5FC9F7880F911D9695879597F9FF
:100B90000895E1E0660F771F881FBB1F6217730778
:100BA0008407BA0720F0621B730B840BBA0BEE1F8D
:100BB00088F7E095089504D06894B111B5C0089500
:100BC00098D088F09F5790F0B92F9927B751A0F08F
:100BD000D1F0660F771F881F991F1AF0BA95C9F7D1
:100BE00012C0B13081F09FD0B1E008959CC0672F52
:100BF000782F8827B85F39F0B93FCCF38695779581
:100C00006795B395D9F73EF4909580957095619569
:100C10007F4F8F4F9F4F0895E89409C097FB3EF494
:100C200090958095709561957F4F8F4F9F4F992339
:100C3000A9F0F92F96E9BB279395F69587957795B7
:100C40006795B795F111F8CFFAF4BB0F11F460FF77
:100C50001BC06F5F7F4F8F4F9F4F16C0882311F0CF
:100C600096E911C0772321F09EE8872F762F05C0E3
:100C7000662371F096E8862F70E060E02AF09A957E
:100C8000660F771F881FDAF7880F9695879597F973
:100C9000089597F99F6780E870E060E008959FEFFE
:100CA00080EC089500240A94161617061806090603
:100CB000089500240A9412161306140605060895D2
:100CC000092E0394000C11F4882352F0BB0F40F45A
:100CD000BF2B11F460FF04C06F5F7F4F8F4F9F4F9A
:100CE000089557FD9058440F551F59F05F3F71F01C
:100CF0004795880F97FB991F61F09F3F79F0879583
:100D00000895121613061406551FF2CF4695F1DF0B
:100D100008C0161617061806991FF1CF869571059B
:100D2000610508940895E894BB2766277727CB01CF
:100D300097F908950BD0C4CFB5DF28F0BADF18F0CB
:100D4000952309F0A6CFABCF1124EECFCADFA0F3D5
:100D5000959FD1F3950F50E0551F629FF001729F50
:100D6000BB27F00DB11D639FAA27F00DB11DAA1F6F
:100D7000649F6627B00DA11D661F829F2227B00DBC
:100D8000A11D621F739FB00DA11D621F839FA00D47
:100D9000611D221F749F3327A00D611D231F849F97
:100DA000600D211D822F762F6A2F11249F575040EE
:100DB0008AF0E1F088234AF0EE0FFF1FBB1F661F89
:100DC000771F881F91505040A9F79E3F510570F042
:100DD00060CFAACF5F3FECF3983EDCF38695779522
:100DE0006795B795F795E7959F5FC1F7FE2B880F3D
:100DF000911D9695879597F90895DB018F939F93A1
:100E00003AD0BF91AF91A29F800D911DA39F900DED
:100E1000B29F900D1124089597FB072E16F40094AD
:100E200006D077FD08D031D007FC05D03EF4909570
:100E300081959F4F0895709561957F4F0895052E78
:100E400097FB16F400940FD057FD05D032D007FC65
:100E500002D046F408C050954095309521953F4FFB
:100E60004F4F5F4F089590958095709561957F4F96
:100E70008F4F9F4F089545D0A59F900DB49F900D23
:100E8000A49F800D911D11240895AA1BBB1B51E145
:100E900007C0AA1FBB1FA617B70710F0A61BB70BEA
:100EA000881F991F5A95A9F780959095BC01CD018F
:100EB0000895A1E21A2EAA1BBB1BFD010DC0AA1F9B
:100EC000BB1FEE1FFF1FA217B307E407F50720F0B3
:100ED000A21BB30BE40BF50B661F771F881F991F2E
:100EE0001A9469F760957095809590959B01AC0177
:100EF000BD01CF010895EE0FFF1F0590F491E02D85
:100F00000994A29FB001B39FC001A39F01D0B29FDB
:0E0F1000700D811D1124911D0895F894FFCFDE
:060F1E00010000000100CB
:101C000012C02BC02AC029C028C027C026C025C0AA
:101C100024C023C022C021C020C01FC01EC01DC0C0
:101C20001CC01BC01AC011241FBECFE5D4E0DEBF0C
:101C3000CDBF10E0A0E6B0E0E8EEFFE102C0059005
:101C40000D92A236B107D9F711E0A2E6B0E001C0CB
:101C50001D92AA36B107E1F74FC0D2CFEF92FF92A3
:101C60000F931F93EE24FF24870113C00894E11CF7
:101C7000F11C011D111D81E0E81682E1F8068AE7DA
:101C8000080780E0180728F0E0916200F0916300F7
:101C900009955F9BEBCF8CB1992787FD90951F919C
:101CA0000F91FF90EF9008955D9BFECF8CB9089542
:101CB000D5DF803221F484E1F7DF80E1F5DF08959C
:101CC0001F93182FCBDF803231F484E1EDDF812FB9
:101CD000EBDF80E1E9DF1F9108951F93CF93DF933E
:101CE000182FC0E0D0E002C0B9DF2196C117E0F3A1
:101CF000DF91CF911F910895CFE5D4E0DEBFCDBF36
:101D0000000010BC83E389B988E18AB986E880BD08
:101D1000BD9A1092680130E2E0E0F0E02FE088B375
:101D2000832788BBCF010197F1F7215027FFF7CF19
:101D300020E12093680192DF803381F1813399F4AF
:101D40008DDF8032C1F784E1AFDF81E4ADDF86E56E
:101D5000ABDF82E5A9DF80E2A7DF89E4A5DF83E5C9
:101D6000A3DF80E5C7C0803429F478DF8638B0F07F
:101D700075DF14C0813471F471DF803811F482E0B2
:101D80001DC1813811F481E019C1823809F015C1F3
:101D900082E114C1823421F484E19FDF89DFCBCF5B
:101DA000853411F485E0F9CF8035C1F38135B1F385
:101DB0008235A1F3853539F451DF809364004EDF1D
:101DC00080936500EBCF863519F484E086DFF5C09B
:101DD000843609F093C042DF809367013FDF809330
:101DE0006601809169018E7F8093690137DF8534B8
:101DF00029F480916901816080936901C0E0D0E09D
:101E000006E610E005C02ADFF80181938F012196D4
:101E10008091660190916701C817D907A0F31EDF72
:101E2000803209F088CF8091690180FF1FC020E0D7
:101E300030E0E6E6F0E012C0A0916400B0916500E9
:101E40008191082EC5D08091640090916500019623
:101E500090936500809364002F5F3F4F80916601EF
:101E6000909167012817390738F343C0F894E19936
:101E7000FECF1127E0916400F0916500EE0FFF1F87
:101E8000C6E6D0E0809166019091670180FF01C0B5
:101E90000196103051F422D003E000935700E895EA
:101EA0001DD001E100935700E8950990199016D0D4
:101EB00001E000935700E8951395103258F0112770
:101EC0000DD005E000935700E89508D001E100939C
:101ED0005700E8953296029739F0DBCF0091570012
:101EE00001700130D9F30895103011F00296E7CF58
:101EF000112484E1D9DE80E1D7DE1DCF843709F0DB
:101F00004BC0ACDE80936701A9DE80936601A6DE3C
:101F100090916901853421F49160909369010DC01D
:101F20009E7F909369018091640090916500880F75
:101F3000991F909365008093640090DE803209F0D1
:101F4000FACE84E1B1DEC0E0D0E01EC0809169012C
:101F500080FF07C0A0916400B091650031D0802D52
:101F600008C081FD07C0E0916400F0916500E49134
:101F70008E2F9ADE80916400909165000196909377
:101F800065008093640021968091660190916701BD
:101F9000C817D907D8F2AFCF853761F45FDE80323A
:101FA00009F0C9CE84E180DE8EE17EDE83E97CDE4D
:101FB00087E0A0CF863709F0BECE80E081DEBBCEC1
:101FC000E199FECFBFBBAEBBE09A11960DB208956A
:101FD000E199FECFBFBBAEBB0DBA11960FB6F89418
:081FE000E29AE19A0FBE089598
:021FE800800077
:0400000300001C00DD
:00000001FF
